{
  "contractName": "SupplyChain",
  "abi": [
    {
      "inputs": [],
      "stateMutability": "nonpayable",
      "type": "constructor"
    },
    {
      "anonymous": false,
      "inputs": [
        {
          "indexed": false,
          "internalType": "uint256",
          "name": "stepId",
          "type": "uint256"
        }
      ],
      "name": "stepCreated",
      "type": "event"
    },
    {
      "inputs": [
        {
          "internalType": "uint256",
          "name": "",
          "type": "uint256"
        }
      ],
      "name": "lastCreated",
      "outputs": [
        {
          "internalType": "uint256",
          "name": "",
          "type": "uint256"
        }
      ],
      "stateMutability": "view",
      "type": "function"
    },
    {
      "inputs": [
        {
          "internalType": "bool",
          "name": "to",
          "type": "bool"
        }
      ],
      "name": "Pause",
      "outputs": [],
      "stateMutability": "nonpayable",
      "type": "function"
    },
    {
      "inputs": [
        {
          "internalType": "uint256",
          "name": "item",
          "type": "uint256"
        },
        {
          "internalType": "uint256[]",
          "name": "precedents",
          "type": "uint256[]"
        }
      ],
      "name": "createStep",
      "outputs": [],
      "stateMutability": "nonpayable",
      "type": "function"
    },
    {
      "inputs": [
        {
          "internalType": "uint256",
          "name": "_step",
          "type": "uint256"
        }
      ],
      "name": "isLastOf",
      "outputs": [
        {
          "internalType": "bool",
          "name": "success",
          "type": "bool"
        }
      ],
      "stateMutability": "view",
      "type": "function"
    },
    {
      "inputs": [
        {
          "internalType": "uint256",
          "name": "_step",
          "type": "uint256"
        }
      ],
      "name": "getprecedents",
      "outputs": [
        {
          "internalType": "uint256[]",
          "name": "",
          "type": "uint256[]"
        }
      ],
      "stateMutability": "view",
      "type": "function"
    },
    {
      "inputs": [
        {
          "internalType": "uint256",
          "name": "id",
          "type": "uint256"
        }
      ],
      "name": "getStepofId",
      "outputs": [
        {
          "components": [
            {
              "internalType": "address",
              "name": "creator",
              "type": "address"
            },
            {
              "internalType": "uint256",
              "name": "item",
              "type": "uint256"
            },
            {
              "internalType": "uint256[]",
              "name": "precedents",
              "type": "uint256[]"
            }
          ],
          "internalType": "struct SupplyChain.step",
          "name": "",
          "type": "tuple"
        }
      ],
      "stateMutability": "view",
      "type": "function"
    }
  ],
  "bytecode": "0x60806040523480156200001157600080fd5b5060008060006101000a81548160ff02191690831515021790555033600060016101000a81548173ffffffffffffffffffffffffffffffffffffffff021916908373ffffffffffffffffffffffffffffffffffffffff1602179055506200007d6200008360201b60201c565b620002e6565b6060600060405180606001604052803373ffffffffffffffffffffffffffffffffffffffff16815260200160008152602001838152509050600181908060018154018082558091505060019003906000526020600020906003020160009091909190915060008201518160000160006101000a81548173ffffffffffffffffffffffffffffffffffffffff021916908373ffffffffffffffffffffffffffffffffffffffff16021790555060208201518160010155604082015181600201908051906020019062000156929190620001d3565b505050600180805490506200016c919062000272565b60026000808152602001908152602001600020819055507f3b72a67f6899b3e9667020b7d77808907c2b6082a3e6f4b6d6df44272495915e6002600080815260200190815260200160002054604051620001c7919062000255565b60405180910390a15050565b82805482825590600052602060002090810192821562000212579160200282015b8281111562000211578251825591602001919060010190620001f4565b5b50905062000221919062000225565b5090565b5b808211156200024057600081600090555060010162000226565b5090565b6200024f81620002ad565b82525050565b60006020820190506200026c600083018462000244565b92915050565b60006200027f82620002ad565b91506200028c83620002ad565b925082821015620002a257620002a1620002b7565b5b828203905092915050565b6000819050919050565b7f4e487b7100000000000000000000000000000000000000000000000000000000600052601160045260246000fd5b610f7f80620002f66000396000f3fe608060405234801561001057600080fd5b50600436106100625760003560e01c806345029c9f1461006757806391fa2850146100975780639422424b146100c757806397add3a5146100e3578063994b76a414610113578063d18465a814610143575b600080fd5b610081600480360381019061007c9190610910565b61015f565b60405161008e9190610cf6565b60405180910390f35b6100b160048036038101906100ac9190610910565b610279565b6040516100be9190610c5b565b60405180910390f35b6100e160048036038101906100dc91906108e7565b6102e3565b005b6100fd60048036038101906100f89190610910565b61038f565b60405161010a9190610c39565b60405180910390f35b61012d60048036038101906101289190610910565b610432565b60405161013a9190610d18565b60405180910390f35b61015d60048036038101906101589190610939565b61044a565b005b610167610786565b600182815481106101a1577f4e487b7100000000000000000000000000000000000000000000000000000000600052603260045260246000fd5b90600052602060002090600302016040518060600160405290816000820160009054906101000a900473ffffffffffffffffffffffffffffffffffffffff1673ffffffffffffffffffffffffffffffffffffffff1673ffffffffffffffffffffffffffffffffffffffff168152602001600182015481526020016002820180548060200260200160405190810160405280929190818152602001828054801561026957602002820191906000526020600020905b815481526020019060010190808311610255575b5050505050815250509050919050565b60008160026000600185815481106102ba577f4e487b7100000000000000000000000000000000000000000000000000000000600052603260045260246000fd5b906000526020600020906003020160010154815260200190815260200160002054149050919050565b600060019054906101000a900473ffffffffffffffffffffffffffffffffffffffff1673ffffffffffffffffffffffffffffffffffffffff163373ffffffffffffffffffffffffffffffffffffffff1614610373576040517f08c379a000000000000000000000000000000000000000000000000000000000815260040161036a90610cd6565b60405180910390fd5b806000806101000a81548160ff02191690831515021790555050565b6060600182815481106103cb577f4e487b7100000000000000000000000000000000000000000000000000000000600052603260045260246000fd5b906000526020600020906003020160020180548060200260200160405190810160405280929190818152602001828054801561042657602002820191906000526020600020905b815481526020019060010190808311610412575b50505050509050919050565b60026020528060005260406000206000915090505481565b6001151560008054906101000a900460ff161515141561049f576040517f08c379a000000000000000000000000000000000000000000000000000000000815260040161049690610cb6565b60405180910390fd5b6000805b82518110156105e0576104f58382815181106104e8577f4e487b7100000000000000000000000000000000000000000000000000000000600052603260045260246000fd5b6020026020010151610279565b610534576040517f08c379a000000000000000000000000000000000000000000000000000000000815260040161052b90610c76565b60405180910390fd5b836001848381518110610570577f4e487b7100000000000000000000000000000000000000000000000000000000600052603260045260246000fd5b6020026020010151815481106105af577f4e487b7100000000000000000000000000000000000000000000000000000000600052603260045260246000fd5b90600052602060002090600302016001015414156105cc57600191505b6001816105d99190610deb565b90506104a3565b508061063d57600060026000858152602001908152602001600020541461063c576040517f08c379a000000000000000000000000000000000000000000000000000000000815260040161063390610c96565b60405180910390fd5b5b600060405180606001604052803373ffffffffffffffffffffffffffffffffffffffff168152602001858152602001848152509050600181908060018154018082558091505060019003906000526020600020906003020160009091909190915060008201518160000160006101000a81548173ffffffffffffffffffffffffffffffffffffffff021916908373ffffffffffffffffffffffffffffffffffffffff16021790555060208201518160010155604082015181600201908051906020019061070b9291906107bd565b5050506001808054905061071f9190610e41565b60026000868152602001908152602001600020819055507f3b72a67f6899b3e9667020b7d77808907c2b6082a3e6f4b6d6df44272495915e60026000868152602001908152602001600020546040516107789190610d18565b60405180910390a150505050565b6040518060600160405280600073ffffffffffffffffffffffffffffffffffffffff16815260200160008152602001606081525090565b8280548282559060005260206000209081019282156107f9579160200282015b828111156107f85782518255916020019190600101906107dd565b5b509050610806919061080a565b5090565b5b8082111561082357600081600090555060010161080b565b5090565b600061083a61083584610d64565b610d33565b9050808382526020820190508285602086028201111561085957600080fd5b60005b85811015610889578161086f88826108d2565b84526020840193506020830192505060018101905061085c565b5050509392505050565b600082601f8301126108a457600080fd5b81356108b4848260208601610827565b91505092915050565b6000813590506108cc81610f1b565b92915050565b6000813590506108e181610f32565b92915050565b6000602082840312156108f957600080fd5b6000610907848285016108bd565b91505092915050565b60006020828403121561092257600080fd5b6000610930848285016108d2565b91505092915050565b6000806040838503121561094c57600080fd5b600061095a858286016108d2565b925050602083013567ffffffffffffffff81111561097757600080fd5b61098385828601610893565b9150509250929050565b60006109998383610c1b565b60208301905092915050565b6109ae81610e75565b82525050565b60006109bf82610da0565b6109c98185610db8565b93506109d483610d90565b8060005b83811015610a055781516109ec888261098d565b97506109f783610dab565b9250506001810190506109d8565b5085935050505092915050565b6000610a1d82610da0565b610a278185610dc9565b9350610a3283610d90565b8060005b83811015610a63578151610a4a888261098d565b9750610a5583610dab565b925050600181019050610a36565b5085935050505092915050565b610a7981610e87565b82525050565b6000610a8c601883610dda565b91507f417070656e64206f6e6c79206f6e206c617374207374657000000000000000006000830152602082019050919050565b6000610acc604383610dda565b91507f4974656d2073686f756c64206265206569746865722073616d6520617320707260008301527f65636564656e74207374656f206f722073686f756c642062652061206e65772060208301527f6f6e6500000000000000000000000000000000000000000000000000000000006040830152606082019050919050565b6000610b58601983610dda565b91507f636f6e74726163742069732070617573656420627920636f6f000000000000006000830152602082019050919050565b6000610b98601d83610dda565b91507f6f6e6c7920434f4f2063616e2063616c6c2074686973206d6574686f640000006000830152602082019050919050565b6000606083016000830151610be360008601826109a5565b506020830151610bf66020860182610c1b565b5060408301518482036040860152610c0e82826109b4565b9150508091505092915050565b610c2481610eb3565b82525050565b610c3381610eb3565b82525050565b60006020820190508181036000830152610c538184610a12565b905092915050565b6000602082019050610c706000830184610a70565b92915050565b60006020820190508181036000830152610c8f81610a7f565b9050919050565b60006020820190508181036000830152610caf81610abf565b9050919050565b60006020820190508181036000830152610ccf81610b4b565b9050919050565b60006020820190508181036000830152610cef81610b8b565b9050919050565b60006020820190508181036000830152610d108184610bcb565b905092915050565b6000602082019050610d2d6000830184610c2a565b92915050565b6000604051905081810181811067ffffffffffffffff82111715610d5a57610d59610eec565b5b8060405250919050565b600067ffffffffffffffff821115610d7f57610d7e610eec565b5b602082029050602081019050919050565b6000819050602082019050919050565b600081519050919050565b6000602082019050919050565b600082825260208201905092915050565b600082825260208201905092915050565b600082825260208201905092915050565b6000610df682610eb3565b9150610e0183610eb3565b9250827fffffffffffffffffffffffffffffffffffffffffffffffffffffffffffffffff03821115610e3657610e35610ebd565b5b828201905092915050565b6000610e4c82610eb3565b9150610e5783610eb3565b925082821015610e6a57610e69610ebd565b5b828203905092915050565b6000610e8082610e93565b9050919050565b60008115159050919050565b600073ffffffffffffffffffffffffffffffffffffffff82169050919050565b6000819050919050565b7f4e487b7100000000000000000000000000000000000000000000000000000000600052601160045260246000fd5b7f4e487b7100000000000000000000000000000000000000000000000000000000600052604160045260246000fd5b610f2481610e87565b8114610f2f57600080fd5b50565b610f3b81610eb3565b8114610f4657600080fd5b5056fea2646970667358221220eef1f05f20e1a290adb6895e9ddfdf63ef60ab6102f248bb1d4d6e9865afd65b64736f6c63430008000033",
  "immutableReferences": {},
  "source": "//SPDX-License-Identifier: UNLICENSED\r\npragma solidity ^0.8.0;\r\n\r\n/**\r\n * The SupplyChain is used for book keeping of various step in a supply chain\r\n */\r\ncontract SupplyChain {\r\n    bool private pause;\r\n    address private owner;\r\n    \r\n    struct step {\r\n        address   creator;\r\n        uint      item;\r\n        uint256[] precedents; // There could be more than one precedent\r\n    }\r\n\r\n    event stepCreated(uint stepId);\r\n\r\n    step[] private steps;\r\n\r\n    mapping(uint => uint) public lastCreated;\r\n\r\n    modifier onlyCOO() { \r\n        require (msg.sender == owner,\"only COO can call this method\"); \r\n        _; \r\n    }\r\n\r\n    modifier whenNotPaused(){\r\n        require(pause != true,\"contract is paused by coo\");\r\n        _;\r\n    }\r\n\r\n    function  Pause(bool to) external onlyCOO {\r\n        pause = to;\r\n    }\r\n    \r\n    constructor() {\r\n        pause = false;\r\n        owner = msg.sender;\r\n        createGenesisStep();\r\n    }\r\n    \r\n    function createGenesisStep() internal {\r\n        uint[] memory dummy;\r\n        step memory newStep = step(msg.sender,0,dummy);\r\n        steps.push(newStep);\r\n        lastCreated[0] = steps.length-1;\r\n        emit stepCreated(lastCreated[0]);\r\n    }\r\n    \r\n    function createStep(uint item, uint[] memory precedents) external whenNotPaused{\r\n        bool instanceRepeated = false;\r\n        for ( uint i = 0; i < precedents.length; i+=1){\r\n            require(isLastOf(precedents[i]),\"Append only on last step\");\r\n            if( steps[precedents[i]].item == item){\r\n                instanceRepeated = true;\r\n            }\r\n        }\r\n\r\n        if( !instanceRepeated){\r\n            require(lastCreated[item] == 0,\"Item should be either same as precedent steo or should be a new one\");\r\n        }\r\n\r\n        step memory newStep = step(msg.sender,item,precedents);\r\n        steps.push(newStep);\r\n        lastCreated[item] = steps.length-1;\r\n        emit stepCreated(lastCreated[item]);\r\n    }\r\n\r\n    function isLastOf(uint _step) public view returns(bool success){\r\n        return lastCreated[steps[_step].item] == _step;\r\n    }\r\n\r\n    function getprecedents(uint256 _step) external view returns(uint256[] memory){\r\n       return steps[_step].precedents;\r\n    }\r\n\r\n    function getStepofId(uint id)external view returns(step memory){\r\n       return steps[id];\r\n    }\r\n\r\n}\r\n\r\n",
  "sourcePath": "C:/Users/soura/OneDrive/Desktop/Programming Files/Solidity Files/SupplyChain/contracts/SupplyChain.sol",
  "compiler": {
    "name": "solc",
    "version": "0.8.0+commit.c7dfd78e.Emscripten.clang"
  },
  "schemaVersion": "3.4.1",
  "updatedAt": "2021-05-26T15:43:51.864Z",
  "devdoc": {
    "kind": "dev",
    "methods": {},
    "version": 1
  },
  "userdoc": {
    "kind": "user",
    "methods": {},
    "notice": "The SupplyChain is used for book keeping of various step in a supply chain",
    "version": 1
  }
}