{
  "contractName": "MyToken",
  "abi": [
    {
      "inputs": [],
      "payable": false,
      "stateMutability": "nonpayable",
      "type": "constructor"
    },
    {
      "constant": true,
      "inputs": [],
      "name": "totalSupply",
      "outputs": [
        {
          "internalType": "uint256",
          "name": "",
          "type": "uint256"
        }
      ],
      "payable": false,
      "stateMutability": "view",
      "type": "function"
    }
  ],
  "bytecode": "0x6080604052348015600f57600080fd5b50620f42406000819055506084806100286000396000f3fe6080604052348015600f57600080fd5b506004361060285760003560e01c806318160ddd14602d575b600080fd5b60336049565b6040518082815260200191505060405180910390f35b6000548156fea265627a7a72315820720f63f7b6389cf76a0fdf3ba9680cd05d75341451ed7ba2092cdfa2916ce25f64736f6c63430005100032",
  "source": "pragma solidity ^0.5.16;\r\n\r\ncontract MyToken{\r\n     \r\n     uint256 public totalSupply;\r\n\r\n     constructor() public {\r\n         totalSupply = 1000000;\r\n     }\r\n\r\n     \r\n\r\n\r\n}",
  "sourcePath": "C:/Users/soura/OneDrive/Desktop/Programming Files/Solidity Files/Token Sale/contracts/myToken.sol",
  "compiler": {
    "name": "solc",
    "version": "0.5.16+commit.9c3226ce.Emscripten.clang"
  },
  "schemaVersion": "3.4.1",
  "updatedAt": "2021-05-17T09:13:56.013Z",
  "networkType": "ethereum",
  "devdoc": {
    "methods": {}
  },
  "userdoc": {
    "methods": {}
  }
}