{
  "contractName": "HumanFactory",
  "abi": [
    {
      "inputs": [],
      "stateMutability": "nonpayable",
      "type": "constructor"
    },
    {
      "anonymous": false,
      "inputs": [
        {
          "indexed": false,
          "internalType": "uint256",
          "name": "id",
          "type": "uint256"
        },
        {
          "indexed": false,
          "internalType": "uint256",
          "name": "gene",
          "type": "uint256"
        },
        {
          "indexed": false,
          "internalType": "string",
          "name": "gender",
          "type": "string"
        }
      ],
      "name": "_newHuman",
      "type": "event"
    },
    {
      "inputs": [
        {
          "internalType": "uint256",
          "name": "",
          "type": "uint256"
        }
      ],
      "name": "_indexToOwner",
      "outputs": [
        {
          "internalType": "address",
          "name": "",
          "type": "address"
        }
      ],
      "stateMutability": "view",
      "type": "function",
      "constant": true
    },
    {
      "inputs": [
        {
          "internalType": "address",
          "name": "",
          "type": "address"
        }
      ],
      "name": "_ownerToHumanCount",
      "outputs": [
        {
          "internalType": "uint256",
          "name": "",
          "type": "uint256"
        }
      ],
      "stateMutability": "view",
      "type": "function",
      "constant": true
    },
    {
      "inputs": [
        {
          "internalType": "uint256",
          "name": "",
          "type": "uint256"
        }
      ],
      "name": "population",
      "outputs": [
        {
          "internalType": "uint256",
          "name": "gene",
          "type": "uint256"
        },
        {
          "internalType": "string",
          "name": "gender",
          "type": "string"
        },
        {
          "internalType": "uint256",
          "name": "fatherId",
          "type": "uint256"
        },
        {
          "internalType": "uint256",
          "name": "motherId",
          "type": "uint256"
        },
        {
          "internalType": "uint256",
          "name": "birthtime",
          "type": "uint256"
        }
      ],
      "stateMutability": "view",
      "type": "function",
      "constant": true
    },
    {
      "inputs": [
        {
          "internalType": "uint256",
          "name": "_fatherId",
          "type": "uint256"
        },
        {
          "internalType": "uint256",
          "name": "_motherId",
          "type": "uint256"
        }
      ],
      "name": "createHuman",
      "outputs": [
        {
          "internalType": "bool",
          "name": "success",
          "type": "bool"
        }
      ],
      "stateMutability": "nonpayable",
      "type": "function"
    },
    {
      "inputs": [
        {
          "internalType": "uint256",
          "name": "v",
          "type": "uint256"
        }
      ],
      "name": "integerToString",
      "outputs": [
        {
          "internalType": "string",
          "name": "",
          "type": "string"
        }
      ],
      "stateMutability": "pure",
      "type": "function",
      "constant": true
    }
  ],
  "bytecode": "0x60806040523480156200001157600080fd5b50336000806101000a81548173ffffffffffffffffffffffffffffffffffffffff021916908373ffffffffffffffffffffffffffffffffffffffff16021790555060008054906101000a900473ffffffffffffffffffffffffffffffffffffffff1673ffffffffffffffffffffffffffffffffffffffff163373ffffffffffffffffffffffffffffffffffffffff1614620000e3576040517f08c379a0000000000000000000000000000000000000000000000000000000008152600401620000da9062000482565b60405180910390fd5b60016040518060a001604052806133bb81526020016040518060400160405280600481526020017f6d616c6500000000000000000000000000000000000000000000000000000000815250815260200160008152602001600181526020014281525090806001815401808255809150506001900390600052602060002090600502016000909190919091506000820151816000015560208201518160010190805190602001906200019692919062000390565b506040820151816002015560608201518160030155608082015181600401555050336002600080815260200190815260200160002060006101000a81548173ffffffffffffffffffffffffffffffffffffffff021916908373ffffffffffffffffffffffffffffffffffffffff16021790555060016040518060a0016040528062020d8e81526020016040518060400160405280600681526020017f66656d616c65000000000000000000000000000000000000000000000000000081525081526020016000815260200160018152602001428152509080600181540180825580915050600190039060005260206000209060050201600090919091909150600082015181600001556020820151816001019080519060200190620002bd92919062000390565b50604082015181600201556060820151816003015560808201518160040155505033600260006001815260200190815260200160002060006101000a81548173ffffffffffffffffffffffffffffffffffffffff021916908373ffffffffffffffffffffffffffffffffffffffff1602179055506002600360003373ffffffffffffffffffffffffffffffffffffffff1673ffffffffffffffffffffffffffffffffffffffff1681526020019081526020016000206000828254620003839190620004b5565b92505081905550620005b0565b8280546200039e906200051c565b90600052602060002090601f016020900481019282620003c257600085556200040e565b82601f10620003dd57805160ff19168380011785556200040e565b828001600101855582156200040e579182015b828111156200040d578251825591602001919060010190620003f0565b5b5090506200041d919062000421565b5090565b5b808211156200043c57600081600090555060010162000422565b5090565b60006200044f602083620004a4565b91507f4f6e6c79204f776e65722043616e2075736520746869732066756e6374696f6e6000830152602082019050919050565b600060208201905081810360008301526200049d8162000440565b9050919050565b600082825260208201905092915050565b6000620004c28262000512565b9150620004cf8362000512565b9250827fffffffffffffffffffffffffffffffffffffffffffffffffffffffffffffffff0382111562000507576200050662000552565b5b828201905092915050565b6000819050919050565b600060028204905060018216806200053557607f821691505b602082108114156200054c576200054b62000581565b5b50919050565b7f4e487b7100000000000000000000000000000000000000000000000000000000600052601160045260246000fd5b7f4e487b7100000000000000000000000000000000000000000000000000000000600052602260045260246000fd5b61139a80620005c06000396000f3fe608060405234801561001057600080fd5b50600436106100575760003560e01c80630a18e6f91461005c5780639476a1d81461008c578063c88a3710146100bc578063d3f4a268146100ec578063e1a3cae514610120575b600080fd5b61007660048036038101906100719190610d15565b610150565b6040516100839190610f1a565b60405180910390f35b6100a660048036038101906100a19190610cec565b610183565b6040516100b39190610fd2565b60405180910390f35b6100d660048036038101906100d19190610d15565b61019b565b6040516100e39190610f50565b60405180910390f35b61010660048036038101906101019190610d15565b61043a565b604051610117959493929190610fed565b60405180910390f35b61013a60048036038101906101359190610d3e565b610508565b6040516101479190610f35565b60405180910390f35b60026020528060005260406000206000915054906101000a900473ffffffffffffffffffffffffffffffffffffffff1681565b60036020528060005260406000206000915090505481565b606060006064905060008167ffffffffffffffff8111156101e5577f4e487b7100000000000000000000000000000000000000000000000000000000600052604160045260246000fd5b6040519080825280601f01601f1916602001820160405280156102175781602001600182028036833780820191505090505b50905060005b600085146102cf576000600a866102349190611267565b9050600a866102439190611102565b955080603061025291906110ac565b60f81b83838061026190611214565b94508151811061029a577f4e487b7100000000000000000000000000000000000000000000000000000000600052603260045260246000fd5b60200101907effffffffffffffffffffffffffffffffffffffffffffffffffffffffffffff1916908160001a9053505061021d565b60008167ffffffffffffffff811115610311577f4e487b7100000000000000000000000000000000000000000000000000000000600052604160045260246000fd5b6040519080825280601f01601f1916602001820160405280156103435781602001600182028036833780820191505090505b50905060005b828110156104275783600182856103609190611133565b61036a9190611133565b815181106103a1577f4e487b7100000000000000000000000000000000000000000000000000000000600052603260045260246000fd5b602001015160f81c60f81b8282815181106103e5577f4e487b7100000000000000000000000000000000000000000000000000000000600052603260045260246000fd5b60200101907effffffffffffffffffffffffffffffffffffffffffffffffffffffffffffff1916908160001a905350808061041f90611214565b915050610349565b5060008190508095505050505050919050565b6001818154811061044a57600080fd5b9060005260206000209060050201600091509050806000015490806001018054610473906111e2565b80601f016020809104026020016040519081016040528092919081815260200182805461049f906111e2565b80156104ec5780601f106104c1576101008083540402835291602001916104ec565b820191906000526020600020905b8154815290600101906020018083116104cf57829003601f168201915b5050505050908060020154908060030154908060040154905085565b60006002600083815260200190815260200160002060009054906101000a900473ffffffffffffffffffffffffffffffffffffffff1673ffffffffffffffffffffffffffffffffffffffff163373ffffffffffffffffffffffffffffffffffffffff16146105ab576040517f08c379a00000000000000000000000000000000000000000000000000000000081526004016105a290610fb2565b60405180910390fd5b6106bd600183815481106105e8577f4e487b7100000000000000000000000000000000000000000000000000000000600052603260045260246000fd5b90600052602060002090600502016001018054610604906111e2565b80601f0160208091040260200160405190810160405280929190818152602001828054610630906111e2565b801561067d5780601f106106525761010080835404028352916020019161067d565b820191906000526020600020905b81548152906001019060200180831161066057829003601f168201915b50505050506040518060400160405280600681526020017f66656d616c650000000000000000000000000000000000000000000000000000815250610a74565b6106fc576040517f08c379a00000000000000000000000000000000000000000000000000000000081526004016106f390610f72565b60405180910390fd5b61080e60018481548110610739577f4e487b7100000000000000000000000000000000000000000000000000000000600052603260045260246000fd5b90600052602060002090600502016001018054610755906111e2565b80601f0160208091040260200160405190810160405280929190818152602001828054610781906111e2565b80156107ce5780601f106107a3576101008083540402835291602001916107ce565b820191906000526020600020905b8154815290600101906020018083116107b157829003601f168201915b50505050506040518060400160405280600481526020017f6d616c6500000000000000000000000000000000000000000000000000000000815250610a74565b61084d576040517f08c379a000000000000000000000000000000000000000000000000000000000815260040161084490610f92565b60405180910390fd5b60006108598484610ae0565b905060006040518060a001604052806108728787610bc8565b815260200183815260200186815260200185815260200142815250905060018190806001815401808255809150506001900390600052602060002090600502016000909190919091506000820151816000015560208201518160010190805190602001906108e1929190610c1f565b5060408201518160020155606082015181600301556080820151816004015550506000600180805490506109159190611133565b90506002600086815260200190815260200160002060009054906101000a900473ffffffffffffffffffffffffffffffffffffffff166002600083815260200190815260200160002060006101000a81548173ffffffffffffffffffffffffffffffffffffffff021916908373ffffffffffffffffffffffffffffffffffffffff160217905550600360006002600084815260200190815260200160002060009054906101000a900473ffffffffffffffffffffffffffffffffffffffff1673ffffffffffffffffffffffffffffffffffffffff1673ffffffffffffffffffffffffffffffffffffffff1681526020019081526020016000206000815480929190610a1f90611214565b91905055507f8aeef5de632908d8ed78985aa0b6c9ca0d488ca719325841ec1333bf311fcd7f8183600001518460200151604051610a5f93929190611047565b60405180910390a16001935050505092915050565b60008151835114610a885760009050610ada565b81604051602001610a999190610ee8565b6040516020818303038152906040528051906020012083604051602001610ac09190610ee8565b604051602081830303815290604052805190602001201490505b92915050565b60604282610aee91906110ac565b604051602001610afe9190610eff565b604051602081830303815290604052805190602001208284610b2091906110ac565b604051602001610b309190610eff565b604051602081830303815290604052805190602001201115610b89576040518060400160405280600681526020017f66656d616c6500000000000000000000000000000000000000000000000000008152509050610bc2565b6040518060400160405280600481526020017f6d616c650000000000000000000000000000000000000000000000000000000081525090505b92915050565b600080610bea428486610bdb91906110ac565b610be591906110ac565b61019b565b604051602001610bfa9190610ee8565b6040516020818303038152906040528051906020012060001c90508091505092915050565b828054610c2b906111e2565b90600052602060002090601f016020900481019282610c4d5760008555610c94565b82601f10610c6657805160ff1916838001178555610c94565b82800160010185558215610c94579182015b82811115610c93578251825591602001919060010190610c78565b5b509050610ca19190610ca5565b5090565b5b80821115610cbe576000816000905550600101610ca6565b5090565b600081359050610cd181611336565b92915050565b600081359050610ce68161134d565b92915050565b600060208284031215610cfe57600080fd5b6000610d0c84828501610cc2565b91505092915050565b600060208284031215610d2757600080fd5b6000610d3584828501610cd7565b91505092915050565b60008060408385031215610d5157600080fd5b6000610d5f85828601610cd7565b9250506020610d7085828601610cd7565b9150509250929050565b610d8381611167565b82525050565b610d9281611179565b82525050565b6000610da382611085565b610dad8185611090565b9350610dbd8185602086016111af565b610dc681611325565b840191505092915050565b6000610ddc82611085565b610de681856110a1565b9350610df68185602086016111af565b80840191505092915050565b6000610e0f601c83611090565b91507f4d6f746865722073686f756c64206f6e6c792062652066656d616c65000000006000830152602082019050919050565b6000610e4f601a83611090565b91507f4661746865722073686f756c64206f6e6c79206265206d616c650000000000006000830152602082019050919050565b6000610e8f601883611090565b91507f596f7520646f6e2774206f776e207468697320746f6b656e00000000000000006000830152602082019050919050565b610ecb816111a5565b82525050565b610ee2610edd826111a5565b61125d565b82525050565b6000610ef48284610dd1565b915081905092915050565b6000610f0b8284610ed1565b60208201915081905092915050565b6000602082019050610f2f6000830184610d7a565b92915050565b6000602082019050610f4a6000830184610d89565b92915050565b60006020820190508181036000830152610f6a8184610d98565b905092915050565b60006020820190508181036000830152610f8b81610e02565b9050919050565b60006020820190508181036000830152610fab81610e42565b9050919050565b60006020820190508181036000830152610fcb81610e82565b9050919050565b6000602082019050610fe76000830184610ec2565b92915050565b600060a0820190506110026000830188610ec2565b81810360208301526110148187610d98565b90506110236040830186610ec2565b6110306060830185610ec2565b61103d6080830184610ec2565b9695505050505050565b600060608201905061105c6000830186610ec2565b6110696020830185610ec2565b818103604083015261107b8184610d98565b9050949350505050565b600081519050919050565b600082825260208201905092915050565b600081905092915050565b60006110b7826111a5565b91506110c2836111a5565b9250827fffffffffffffffffffffffffffffffffffffffffffffffffffffffffffffffff038211156110f7576110f6611298565b5b828201905092915050565b600061110d826111a5565b9150611118836111a5565b925082611128576111276112c7565b5b828204905092915050565b600061113e826111a5565b9150611149836111a5565b92508282101561115c5761115b611298565b5b828203905092915050565b600061117282611185565b9050919050565b60008115159050919050565b600073ffffffffffffffffffffffffffffffffffffffff82169050919050565b6000819050919050565b60005b838110156111cd5780820151818401526020810190506111b2565b838111156111dc576000848401525b50505050565b600060028204905060018216806111fa57607f821691505b6020821081141561120e5761120d6112f6565b5b50919050565b600061121f826111a5565b91507fffffffffffffffffffffffffffffffffffffffffffffffffffffffffffffffff82141561125257611251611298565b5b600182019050919050565b6000819050919050565b6000611272826111a5565b915061127d836111a5565b92508261128d5761128c6112c7565b5b828206905092915050565b7f4e487b7100000000000000000000000000000000000000000000000000000000600052601160045260246000fd5b7f4e487b7100000000000000000000000000000000000000000000000000000000600052601260045260246000fd5b7f4e487b7100000000000000000000000000000000000000000000000000000000600052602260045260246000fd5b6000601f19601f8301169050919050565b61133f81611167565b811461134a57600080fd5b50565b611356816111a5565b811461136157600080fd5b5056fea2646970667358221220fcdfd9e17af2c3b34643f6fe62402ba102d73c7af934c3ff31f50703d5d08fa964736f6c63430008000033",
  "immutableReferences": {},
  "source": "//SPDX-License-Identifier: UNLICENSED\r\npragma solidity ^0.8.0;\r\n\r\nimport \"./Ownable.sol\";\r\n\r\ncontract HumanFactory is Ownable{\r\n    struct Human{\r\n        uint   gene;\r\n        string gender;\r\n        uint   fatherId;\r\n        uint   motherId;\r\n        uint   birthtime;\r\n    }\r\n    Human[] public population;\r\n    \r\n    mapping(uint => address) public _indexToOwner;\r\n    mapping(address => uint) public _ownerToHumanCount;\r\n    \r\n    \r\n\r\n    event _newHuman(uint id, uint gene, string gender);\r\n\r\n    constructor() onlyOwner {\r\n        // dummy humans\r\n        population.push(Human(13243,\"male\",0,1,block.timestamp));\r\n        _indexToOwner[0] = msg.sender;\r\n        population.push(Human(134542,\"female\",0,1,block.timestamp));\r\n        _indexToOwner[1] = msg.sender;\r\n        _ownerToHumanCount[msg.sender]+=2;\r\n        \r\n        \r\n    }\r\n\r\n    function createHuman(\r\n        uint _fatherId,\r\n        uint _motherId\r\n    ) \r\n    \r\n    public  returns (bool success)\r\n    {\r\n       require ( msg.sender == _indexToOwner[_motherId],\"You don't own this token\");\r\n       require (equal(population[_motherId].gender,\"female\"),\"Mother should only be female\");\r\n       require (equal(population[_fatherId].gender,\"male\"),\"Father should only be male\");\r\n       string memory gender = _decideGender(_fatherId,_motherId);\r\n       \r\n       Human memory human = Human(_createGene(_fatherId,_motherId),gender,_fatherId,_motherId,block.timestamp);\r\n       population.push(human);\r\n       uint id = population.length-1;\r\n       _indexToOwner[id] = _indexToOwner[_motherId];\r\n       _ownerToHumanCount[_indexToOwner[id]]++;\r\n       emit _newHuman(id,human.gene,human.gender);\r\n       return true;\r\n    }\r\n\r\n    function _createGene(uint _fatherId, uint _motherId) private view returns (uint){\r\n         uint rand = uint(keccak256(abi.encodePacked(integerToString(_fatherId+_motherId+block.timestamp))));\r\n         return rand;\r\n    }\r\n    \r\n    function _decideGender(uint _fatherId,uint _motherId) internal view returns (string memory){\r\n        if ( keccak256(abi.encodePacked(_fatherId+_motherId))>keccak256(abi.encodePacked(_motherId+block.timestamp))){\r\n            return \"female\";\r\n        }\r\n        return \"male\";\r\n    }\r\n    \r\n   function integerToString(uint v) public pure returns (string memory) {\r\n        uint maxlength = 100;\r\n        bytes memory reversed = new bytes(maxlength);\r\n        uint i = 0;\r\n        while (v != 0) {\r\n          uint remainder = v % 10;\r\n           v = v / 10;\r\n           reversed[i++] = bytes1(uint8(48 + remainder));\r\n        }\r\n        bytes memory s = new bytes(i); // i + 1 is inefficient\r\n        for (uint j = 0; j < i; j++) {\r\n            s[j] = reversed[i - j - 1]; // to avoid the off-by-one error\r\n        }\r\n        string memory str = string(s);  // memory isn't implicitly convertible to storage\r\n        return str;\r\n    }\r\n    function equal(string memory a, string memory b) internal pure returns (bool) {\r\n    if(bytes(a).length != bytes(b).length) {\r\n        return false;\r\n    } else {\r\n        return keccak256(abi.encodePacked(a)) == keccak256(abi.encodePacked(b));\r\n    }\r\n}\r\n}\r\n\r\n",
  "sourcePath": "C:/Users/soura/OneDrive/Desktop/Programming Files/CryptoHuman/contracts/HumanFactory.sol",
  "compiler": {
    "name": "solc",
    "version": "0.8.0+commit.c7dfd78e.Emscripten.clang"
  },
  "schemaVersion": "3.4.1",
  "updatedAt": "2021-05-23T07:51:02.556Z",
  "networkType": "ethereum",
  "devdoc": {
    "kind": "dev",
    "methods": {},
    "version": 1
  },
  "userdoc": {
    "kind": "user",
    "methods": {},
    "version": 1
  }
}