{
  "contractName": "MyToken",
  "abi": [
    {
      "inputs": [
        {
          "internalType": "string",
          "name": "n",
          "type": "string"
        },
        {
          "internalType": "string",
          "name": "s",
          "type": "string"
        }
      ],
      "stateMutability": "nonpayable",
      "type": "constructor"
    },
    {
      "anonymous": false,
      "inputs": [
        {
          "indexed": true,
          "internalType": "address",
          "name": "_owner",
          "type": "address"
        },
        {
          "indexed": true,
          "internalType": "address",
          "name": "_approved",
          "type": "address"
        },
        {
          "indexed": true,
          "internalType": "uint256",
          "name": "_tokenId",
          "type": "uint256"
        }
      ],
      "name": "Approval",
      "type": "event"
    },
    {
      "anonymous": false,
      "inputs": [
        {
          "indexed": true,
          "internalType": "address",
          "name": "_owner",
          "type": "address"
        },
        {
          "indexed": true,
          "internalType": "address",
          "name": "_operator",
          "type": "address"
        },
        {
          "indexed": false,
          "internalType": "bool",
          "name": "_approved",
          "type": "bool"
        }
      ],
      "name": "ApprovalForAll",
      "type": "event"
    },
    {
      "anonymous": false,
      "inputs": [
        {
          "indexed": true,
          "internalType": "address",
          "name": "_from",
          "type": "address"
        },
        {
          "indexed": true,
          "internalType": "address",
          "name": "_to",
          "type": "address"
        },
        {
          "indexed": true,
          "internalType": "uint256",
          "name": "_tokenId",
          "type": "uint256"
        }
      ],
      "name": "Transfer",
      "type": "event"
    },
    {
      "inputs": [
        {
          "internalType": "address",
          "name": "",
          "type": "address"
        }
      ],
      "name": "_balances",
      "outputs": [
        {
          "internalType": "uint256",
          "name": "",
          "type": "uint256"
        }
      ],
      "stateMutability": "view",
      "type": "function",
      "constant": true
    },
    {
      "inputs": [],
      "name": "_name",
      "outputs": [
        {
          "internalType": "string",
          "name": "",
          "type": "string"
        }
      ],
      "stateMutability": "view",
      "type": "function",
      "constant": true
    },
    {
      "inputs": [
        {
          "internalType": "address",
          "name": "",
          "type": "address"
        },
        {
          "internalType": "address",
          "name": "",
          "type": "address"
        }
      ],
      "name": "_operatorApprovals",
      "outputs": [
        {
          "internalType": "bool",
          "name": "",
          "type": "bool"
        }
      ],
      "stateMutability": "view",
      "type": "function",
      "constant": true
    },
    {
      "inputs": [
        {
          "internalType": "uint256",
          "name": "",
          "type": "uint256"
        }
      ],
      "name": "_owners",
      "outputs": [
        {
          "internalType": "address",
          "name": "",
          "type": "address"
        }
      ],
      "stateMutability": "view",
      "type": "function",
      "constant": true
    },
    {
      "inputs": [],
      "name": "_symbol",
      "outputs": [
        {
          "internalType": "string",
          "name": "",
          "type": "string"
        }
      ],
      "stateMutability": "view",
      "type": "function",
      "constant": true
    },
    {
      "inputs": [
        {
          "internalType": "uint256",
          "name": "",
          "type": "uint256"
        }
      ],
      "name": "_tokenApprovals",
      "outputs": [
        {
          "internalType": "address",
          "name": "",
          "type": "address"
        }
      ],
      "stateMutability": "view",
      "type": "function",
      "constant": true
    },
    {
      "inputs": [
        {
          "internalType": "address",
          "name": "_owner",
          "type": "address"
        },
        {
          "internalType": "address",
          "name": "_operator",
          "type": "address"
        }
      ],
      "name": "isApprovedForAll",
      "outputs": [
        {
          "internalType": "bool",
          "name": "",
          "type": "bool"
        }
      ],
      "stateMutability": "view",
      "type": "function",
      "constant": true
    },
    {
      "inputs": [
        {
          "internalType": "address",
          "name": "_owner",
          "type": "address"
        }
      ],
      "name": "balanceOf",
      "outputs": [
        {
          "internalType": "uint256",
          "name": "",
          "type": "uint256"
        }
      ],
      "stateMutability": "view",
      "type": "function",
      "constant": true
    },
    {
      "inputs": [
        {
          "internalType": "uint256",
          "name": "tokenId",
          "type": "uint256"
        }
      ],
      "name": "ownerOf",
      "outputs": [
        {
          "internalType": "address",
          "name": "",
          "type": "address"
        }
      ],
      "stateMutability": "view",
      "type": "function",
      "constant": true
    },
    {
      "inputs": [
        {
          "internalType": "address",
          "name": "_from",
          "type": "address"
        },
        {
          "internalType": "address",
          "name": "_to",
          "type": "address"
        },
        {
          "internalType": "uint256",
          "name": "_tokenId",
          "type": "uint256"
        }
      ],
      "name": "safeTransferFrom",
      "outputs": [],
      "stateMutability": "payable",
      "type": "function",
      "payable": true
    },
    {
      "inputs": [
        {
          "internalType": "address",
          "name": "_from",
          "type": "address"
        },
        {
          "internalType": "address",
          "name": "_to",
          "type": "address"
        },
        {
          "internalType": "uint256",
          "name": "_tokenId",
          "type": "uint256"
        },
        {
          "internalType": "bytes",
          "name": "data",
          "type": "bytes"
        }
      ],
      "name": "safeTransferFrom",
      "outputs": [],
      "stateMutability": "payable",
      "type": "function",
      "payable": true
    },
    {
      "inputs": [
        {
          "internalType": "address",
          "name": "_from",
          "type": "address"
        },
        {
          "internalType": "address",
          "name": "_to",
          "type": "address"
        },
        {
          "internalType": "uint256",
          "name": "_tokenId",
          "type": "uint256"
        }
      ],
      "name": "transferFrom",
      "outputs": [],
      "stateMutability": "payable",
      "type": "function",
      "payable": true
    },
    {
      "inputs": [
        {
          "internalType": "address",
          "name": "_approved",
          "type": "address"
        },
        {
          "internalType": "uint256",
          "name": "_tokenId",
          "type": "uint256"
        }
      ],
      "name": "approve",
      "outputs": [],
      "stateMutability": "payable",
      "type": "function",
      "payable": true
    },
    {
      "inputs": [
        {
          "internalType": "address",
          "name": "_operator",
          "type": "address"
        },
        {
          "internalType": "bool",
          "name": "_approved",
          "type": "bool"
        }
      ],
      "name": "setApprovalForAll",
      "outputs": [],
      "stateMutability": "nonpayable",
      "type": "function"
    },
    {
      "inputs": [
        {
          "internalType": "uint256",
          "name": "_tokenId",
          "type": "uint256"
        }
      ],
      "name": "getApproved",
      "outputs": [
        {
          "internalType": "address",
          "name": "",
          "type": "address"
        }
      ],
      "stateMutability": "view",
      "type": "function",
      "constant": true
    }
  ],
  "bytecode": "0x60806040523480156200001157600080fd5b506040516200200b3803806200200b833981810160405281019062000037919062000193565b81600090805190602001906200004f92919062000071565b5080600190805190602001906200006892919062000071565b50505062000337565b8280546200007f90620002a3565b90600052602060002090601f016020900481019282620000a35760008555620000ef565b82601f10620000be57805160ff1916838001178555620000ef565b82800160010185558215620000ef579182015b82811115620000ee578251825591602001919060010190620000d1565b5b509050620000fe919062000102565b5090565b5b808211156200011d57600081600090555060010162000103565b5090565b60006200013862000132846200023a565b62000206565b9050828152602081018484840111156200015157600080fd5b6200015e8482856200026d565b509392505050565b600082601f8301126200017857600080fd5b81516200018a84826020860162000121565b91505092915050565b60008060408385031215620001a757600080fd5b600083015167ffffffffffffffff811115620001c257600080fd5b620001d08582860162000166565b925050602083015167ffffffffffffffff811115620001ee57600080fd5b620001fc8582860162000166565b9150509250929050565b6000604051905081810181811067ffffffffffffffff8211171562000230576200022f62000308565b5b8060405250919050565b600067ffffffffffffffff82111562000258576200025762000308565b5b601f19601f8301169050602081019050919050565b60005b838110156200028d57808201518184015260208101905062000270565b838111156200029d576000848401525b50505050565b60006002820490506001821680620002bc57607f821691505b60208210811415620002d357620002d2620002d9565b5b50919050565b7f4e487b7100000000000000000000000000000000000000000000000000000000600052602260045260246000fd5b7f4e487b7100000000000000000000000000000000000000000000000000000000600052604160045260246000fd5b611cc480620003476000396000f3fe6080604052600436106100e85760003560e01c8063992924a61161008a578063b88d4fde11610059578063b88d4fde14610303578063d28d88521461031f578063e985e9c51461034a578063edc3bc3f14610387576100e8565b8063992924a614610235578063a22cb46514610272578063a7cc01361461029b578063b09f1266146102d8576100e8565b806342842e0e116100c657806342842e0e146101625780636352211e1461017e5780636ebcf607146101bb57806370a08231146101f8576100e8565b8063081812fc146100ed578063095ea7b31461012a57806323b872dd14610146575b600080fd5b3480156100f957600080fd5b50610114600480360381019061010f91906113f6565b6103c4565b6040516101219190611835565b60405180910390f35b610144600480360381019061013f91906113ba565b6104a3565b005b610160600480360381019061015b91906112b4565b6106ae565b005b61017c600480360381019061017791906112b4565b610757565b005b34801561018a57600080fd5b506101a560048036038101906101a091906113f6565b610777565b6040516101b29190611835565b60405180910390f35b3480156101c757600080fd5b506101e260048036038101906101dd919061124f565b610829565b6040516101ef91906119cd565b60405180910390f35b34801561020457600080fd5b5061021f600480360381019061021a919061124f565b610841565b60405161022c91906119cd565b60405180910390f35b34801561024157600080fd5b5061025c600480360381019061025791906113f6565b6108f9565b6040516102699190611835565b60405180910390f35b34801561027e57600080fd5b506102996004803603810190610294919061137e565b61092c565b005b3480156102a757600080fd5b506102c260048036038101906102bd91906113f6565b610a98565b6040516102cf9190611835565b60405180910390f35b3480156102e457600080fd5b506102ed610acb565b6040516102fa919061186b565b60405180910390f35b61031d60048036038101906103189190611303565b610b59565b005b34801561032b57600080fd5b50610334610ef4565b604051610341919061186b565b60405180910390f35b34801561035657600080fd5b50610371600480360381019061036c9190611278565b610f82565b60405161037e9190611850565b60405180910390f35b34801561039357600080fd5b506103ae60048036038101906103a99190611278565b611016565b6040516103bb9190611850565b60405180910390f35b60008073ffffffffffffffffffffffffffffffffffffffff166002600084815260200190815260200160002060009054906101000a900473ffffffffffffffffffffffffffffffffffffffff1673ffffffffffffffffffffffffffffffffffffffff161415610468576040517f08c379a000000000000000000000000000000000000000000000000000000000815260040161045f9061192d565b60405180910390fd5b6004600083815260200190815260200160002060009054906101000a900473ffffffffffffffffffffffffffffffffffffffff169050919050565b60006002600083815260200190815260200160002060009054906101000a900473ffffffffffffffffffffffffffffffffffffffff1690508073ffffffffffffffffffffffffffffffffffffffff168373ffffffffffffffffffffffffffffffffffffffff16141561054a576040517f08c379a00000000000000000000000000000000000000000000000000000000081526004016105419061196d565b60405180910390fd5b8073ffffffffffffffffffffffffffffffffffffffff163373ffffffffffffffffffffffffffffffffffffffff16148061058a57506105898133610f82565b5b6105c9576040517f08c379a00000000000000000000000000000000000000000000000000000000081526004016105c0906118cd565b60405180910390fd5b826004600084815260200190815260200160002060006101000a81548173ffffffffffffffffffffffffffffffffffffffff021916908373ffffffffffffffffffffffffffffffffffffffff160217905550818373ffffffffffffffffffffffffffffffffffffffff166002600085815260200190815260200160002060009054906101000a900473ffffffffffffffffffffffffffffffffffffffff1673ffffffffffffffffffffffffffffffffffffffff167f8c5be1e5ebec7d5bd14f71427d1e84f3dd0314c0f7b2291e5b200ac8c7c3b92560405160405180910390a4505050565b6106b83382611045565b6106f7576040517f08c379a00000000000000000000000000000000000000000000000000000000081526004016106ee906119ad565b60405180910390fd5b808273ffffffffffffffffffffffffffffffffffffffff168473ffffffffffffffffffffffffffffffffffffffff167fddf252ad1be2c89b69c2b068fc378daa952ba7f163c4a11628f55a4df523b3ef60405160405180910390a4505050565b61077283838360405180602001604052806000815250610b59565b505050565b6000806002600084815260200190815260200160002060009054906101000a900473ffffffffffffffffffffffffffffffffffffffff169050600073ffffffffffffffffffffffffffffffffffffffff168173ffffffffffffffffffffffffffffffffffffffff161415610820576040517f08c379a00000000000000000000000000000000000000000000000000000000081526004016108179061190d565b60405180910390fd5b80915050919050565b60036020528060005260406000206000915090505481565b60008073ffffffffffffffffffffffffffffffffffffffff168273ffffffffffffffffffffffffffffffffffffffff1614156108b2576040517f08c379a00000000000000000000000000000000000000000000000000000000081526004016108a9906118ed565b60405180910390fd5b600360008373ffffffffffffffffffffffffffffffffffffffff1673ffffffffffffffffffffffffffffffffffffffff168152602001908152602001600020549050919050565b60026020528060005260406000206000915054906101000a900473ffffffffffffffffffffffffffffffffffffffff1681565b3373ffffffffffffffffffffffffffffffffffffffff168273ffffffffffffffffffffffffffffffffffffffff16141561099b576040517f08c379a0000000000000000000000000000000000000000000000000000000008152600401610992906118ad565b60405180910390fd5b80600560003373ffffffffffffffffffffffffffffffffffffffff1673ffffffffffffffffffffffffffffffffffffffff16815260200190815260200160002060008473ffffffffffffffffffffffffffffffffffffffff1673ffffffffffffffffffffffffffffffffffffffff16815260200190815260200160002060006101000a81548160ff0219169083151502179055508173ffffffffffffffffffffffffffffffffffffffff163373ffffffffffffffffffffffffffffffffffffffff167f17307eab39ab6107e8899845ad3d59bd9653f200f220920489ca2b5937696c3183604051610a8c9190611850565b60405180910390a35050565b60046020528060005260406000206000915054906101000a900473ffffffffffffffffffffffffffffffffffffffff1681565b60018054610ad890611b79565b80601f0160208091040260200160405190810160405280929190818152602001828054610b0490611b79565b8015610b515780601f10610b2657610100808354040283529160200191610b51565b820191906000526020600020905b815481529060010190602001808311610b3457829003601f168201915b505050505081565b610b633383611045565b610ba2576040517f08c379a0000000000000000000000000000000000000000000000000000000008152600401610b99906119ad565b60405180910390fd5b8373ffffffffffffffffffffffffffffffffffffffff166002600084815260200190815260200160002060009054906101000a900473ffffffffffffffffffffffffffffffffffffffff1673ffffffffffffffffffffffffffffffffffffffff1614610c43576040517f08c379a0000000000000000000000000000000000000000000000000000000008152600401610c3a9061194d565b60405180910390fd5b600073ffffffffffffffffffffffffffffffffffffffff168373ffffffffffffffffffffffffffffffffffffffff161415610cb3576040517f08c379a0000000000000000000000000000000000000000000000000000000008152600401610caa9061188d565b60405180910390fd5b826004600084815260200190815260200160002060006101000a81548173ffffffffffffffffffffffffffffffffffffffff021916908373ffffffffffffffffffffffffffffffffffffffff160217905550818373ffffffffffffffffffffffffffffffffffffffff166002600085815260200190815260200160002060009054906101000a900473ffffffffffffffffffffffffffffffffffffffff1673ffffffffffffffffffffffffffffffffffffffff167f8c5be1e5ebec7d5bd14f71427d1e84f3dd0314c0f7b2291e5b200ac8c7c3b92560405160405180910390a46001600360008673ffffffffffffffffffffffffffffffffffffffff1673ffffffffffffffffffffffffffffffffffffffff1681526020019081526020016000206000828254610de39190611abb565b925050819055506001600360008573ffffffffffffffffffffffffffffffffffffffff1673ffffffffffffffffffffffffffffffffffffffff1681526020019081526020016000206000828254610e3a9190611a65565b92505081905550826002600084815260200190815260200160002060006101000a81548173ffffffffffffffffffffffffffffffffffffffff021916908373ffffffffffffffffffffffffffffffffffffffff160217905550818373ffffffffffffffffffffffffffffffffffffffff168573ffffffffffffffffffffffffffffffffffffffff167fddf252ad1be2c89b69c2b068fc378daa952ba7f163c4a11628f55a4df523b3ef60405160405180910390a450505050565b60008054610f0190611b79565b80601f0160208091040260200160405190810160405280929190818152602001828054610f2d90611b79565b8015610f7a5780601f10610f4f57610100808354040283529160200191610f7a565b820191906000526020600020905b815481529060010190602001808311610f5d57829003601f168201915b505050505081565b6000600560008473ffffffffffffffffffffffffffffffffffffffff1673ffffffffffffffffffffffffffffffffffffffff16815260200190815260200160002060008373ffffffffffffffffffffffffffffffffffffffff1673ffffffffffffffffffffffffffffffffffffffff16815260200190815260200160002060009054906101000a900460ff16905092915050565b60056020528160005260406000206020528060005260406000206000915091509054906101000a900460ff1681565b60008073ffffffffffffffffffffffffffffffffffffffff166002600084815260200190815260200160002060009054906101000a900473ffffffffffffffffffffffffffffffffffffffff1673ffffffffffffffffffffffffffffffffffffffff1614156110e9576040517f08c379a00000000000000000000000000000000000000000000000000000000081526004016110e09061198d565b60405180910390fd5b60006002600084815260200190815260200160002060009054906101000a900473ffffffffffffffffffffffffffffffffffffffff1690508073ffffffffffffffffffffffffffffffffffffffff168473ffffffffffffffffffffffffffffffffffffffff16148061118e57508373ffffffffffffffffffffffffffffffffffffffff16611176846103c4565b73ffffffffffffffffffffffffffffffffffffffff16145b8061119f575061119e8185610f82565b5b91505092915050565b60006111bb6111b684611a19565b6119e8565b9050828152602081018484840111156111d357600080fd5b6111de848285611b37565b509392505050565b6000813590506111f581611c49565b92915050565b60008135905061120a81611c60565b92915050565b600082601f83011261122157600080fd5b81356112318482602086016111a8565b91505092915050565b60008135905061124981611c77565b92915050565b60006020828403121561126157600080fd5b600061126f848285016111e6565b91505092915050565b6000806040838503121561128b57600080fd5b6000611299858286016111e6565b92505060206112aa858286016111e6565b9150509250929050565b6000806000606084860312156112c957600080fd5b60006112d7868287016111e6565b93505060206112e8868287016111e6565b92505060406112f98682870161123a565b9150509250925092565b6000806000806080858703121561131957600080fd5b6000611327878288016111e6565b9450506020611338878288016111e6565b93505060406113498782880161123a565b925050606085013567ffffffffffffffff81111561136657600080fd5b61137287828801611210565b91505092959194509250565b6000806040838503121561139157600080fd5b600061139f858286016111e6565b92505060206113b0858286016111fb565b9150509250929050565b600080604083850312156113cd57600080fd5b60006113db858286016111e6565b92505060206113ec8582860161123a565b9150509250929050565b60006020828403121561140857600080fd5b60006114168482850161123a565b91505092915050565b61142881611aef565b82525050565b61143781611b01565b82525050565b600061144882611a49565b6114528185611a54565b9350611462818560208601611b46565b61146b81611c38565b840191505092915050565b6000611483602483611a54565b91507f4552433732313a207472616e7366657220746f20746865207a65726f2061646460008301527f72657373000000000000000000000000000000000000000000000000000000006020830152604082019050919050565b60006114e9601983611a54565b91507f4552433732313a20617070726f766520746f2063616c6c6572000000000000006000830152602082019050919050565b6000611529603883611a54565b91507f4552433732313a20617070726f76652063616c6c6572206973206e6f74206f7760008301527f6e6572206e6f7220617070726f76656420666f7220616c6c00000000000000006020830152604082019050919050565b600061158f602a83611a54565b91507f4552433732313a2062616c616e636520717565727920666f7220746865207a6560008301527f726f2061646472657373000000000000000000000000000000000000000000006020830152604082019050919050565b60006115f5602983611a54565b91507f4552433732313a206f776e657220717565727920666f72206e6f6e657869737460008301527f656e7420746f6b656e00000000000000000000000000000000000000000000006020830152604082019050919050565b600061165b602c83611a54565b91507f4552433732313a20617070726f76656420717565727920666f72206e6f6e657860008301527f697374656e7420746f6b656e00000000000000000000000000000000000000006020830152604082019050919050565b60006116c1602983611a54565b91507f4552433732313a207472616e73666572206f6620746f6b656e2074686174206960008301527f73206e6f74206f776e00000000000000000000000000000000000000000000006020830152604082019050919050565b6000611727602183611a54565b91507f4552433732313a20617070726f76616c20746f2063757272656e74206f776e6560008301527f72000000000000000000000000000000000000000000000000000000000000006020830152604082019050919050565b600061178d600d83611a54565b91507f496e76616c696420546f6b656e000000000000000000000000000000000000006000830152602082019050919050565b60006117cd603183611a54565b91507f4552433732313a207472616e736665722063616c6c6572206973206e6f74206f60008301527f776e6572206e6f7220617070726f7665640000000000000000000000000000006020830152604082019050919050565b61182f81611b2d565b82525050565b600060208201905061184a600083018461141f565b92915050565b6000602082019050611865600083018461142e565b92915050565b60006020820190508181036000830152611885818461143d565b905092915050565b600060208201905081810360008301526118a681611476565b9050919050565b600060208201905081810360008301526118c6816114dc565b9050919050565b600060208201905081810360008301526118e68161151c565b9050919050565b6000602082019050818103600083015261190681611582565b9050919050565b60006020820190508181036000830152611926816115e8565b9050919050565b600060208201905081810360008301526119468161164e565b9050919050565b60006020820190508181036000830152611966816116b4565b9050919050565b600060208201905081810360008301526119868161171a565b9050919050565b600060208201905081810360008301526119a681611780565b9050919050565b600060208201905081810360008301526119c6816117c0565b9050919050565b60006020820190506119e26000830184611826565b92915050565b6000604051905081810181811067ffffffffffffffff82111715611a0f57611a0e611c09565b5b8060405250919050565b600067ffffffffffffffff821115611a3457611a33611c09565b5b601f19601f8301169050602081019050919050565b600081519050919050565b600082825260208201905092915050565b6000611a7082611b2d565b9150611a7b83611b2d565b9250827fffffffffffffffffffffffffffffffffffffffffffffffffffffffffffffffff03821115611ab057611aaf611bab565b5b828201905092915050565b6000611ac682611b2d565b9150611ad183611b2d565b925082821015611ae457611ae3611bab565b5b828203905092915050565b6000611afa82611b0d565b9050919050565b60008115159050919050565b600073ffffffffffffffffffffffffffffffffffffffff82169050919050565b6000819050919050565b82818337600083830152505050565b60005b83811015611b64578082015181840152602081019050611b49565b83811115611b73576000848401525b50505050565b60006002820490506001821680611b9157607f821691505b60208210811415611ba557611ba4611bda565b5b50919050565b7f4e487b7100000000000000000000000000000000000000000000000000000000600052601160045260246000fd5b7f4e487b7100000000000000000000000000000000000000000000000000000000600052602260045260246000fd5b7f4e487b7100000000000000000000000000000000000000000000000000000000600052604160045260246000fd5b6000601f19601f8301169050919050565b611c5281611aef565b8114611c5d57600080fd5b50565b611c6981611b01565b8114611c7457600080fd5b50565b611c8081611b2d565b8114611c8b57600080fd5b5056fea26469706673582212202ad4eb967ab191923145fbe35d7dd57d7abf747910b0b6a3ad619ebe7713f0b864736f6c63430008000033",
  "immutableReferences": {},
  "source": "//SPDX-License-Identifier: UNLICENSED\r\npragma solidity ^0.8.0;\r\n\r\ncontract MyToken{\r\n    \r\n      string public _name;\r\n      \r\n      string public _symbol;\r\n     \r\n      mapping (uint256 => address) public _owners;\r\n     \r\n      mapping (address => uint256) public _balances;\r\n      \r\n      mapping (uint256 => address) public _tokenApprovals;\r\n     \r\n      mapping (address => mapping (address => bool)) public _operatorApprovals;\r\n     \r\n      constructor (string memory n, string memory s){\r\n          _name   = n;\r\n          _symbol = s;\r\n      }\r\n\r\n      event Transfer\r\n      (address indexed _from, address indexed _to, uint256 indexed _tokenId);\r\n      \r\n      event Approval\r\n      (address indexed _owner, address indexed _approved, uint256 indexed _tokenId);\r\n      \r\n      event ApprovalForAll\r\n      (address indexed _owner, address indexed _operator, bool _approved);\r\n        \r\n      function isApprovedForAll(address _owner, address _operator) public view returns (bool){\r\n          return _operatorApprovals[_owner][_operator];\r\n      }\r\n      \r\n      function balanceOf(address _owner) external view returns (uint256){\r\n          require(_owner != address(0), \"ERC721: balance query for the zero address\");\r\n          return _balances[_owner];\r\n      }\r\n\r\n      function ownerOf(uint256 tokenId) external view returns (address){\r\n          address currOwner = _owners[tokenId];\r\n          require(currOwner != address(0), \"ERC721: owner query for nonexistent token\");\r\n          return currOwner;\r\n      }\r\n      \r\n      function safeTransferFrom(address _from, address _to, uint256 _tokenId, bytes memory data) public payable{\r\n          require(_isApprovedOrOwner(msg.sender, _tokenId), \"ERC721: transfer caller is not owner nor approved\");\r\n          require(_owners[_tokenId] == _from, \"ERC721: transfer of token that is not own\");\r\n          require(_to != address(0), \"ERC721: transfer to the zero address\");\r\n           _tokenApprovals[_tokenId] = _to;\r\n          emit Approval(_owners[_tokenId], _to, _tokenId);\r\n\r\n          _balances[_from] -= 1;\r\n          _balances[_to] += 1;\r\n          _owners[_tokenId] = _to;\r\n\r\n          emit Transfer(_from, _to, _tokenId);\r\n      }\r\n\r\n       \r\n      function safeTransferFrom(address _from, address _to, uint256 _tokenId) external payable{\r\n          safeTransferFrom(_from, _to, _tokenId, \"\");\r\n      }\r\n      \r\n      function transferFrom(address _from, address _to, uint256 _tokenId) external payable{ \r\n         require(_isApprovedOrOwner(msg.sender, _tokenId), \"ERC721: transfer caller is not owner nor approved\");\r\n         emit Transfer(_from, _to, _tokenId);\r\n      }\r\n      \r\n      function approve(address _approved, uint256 _tokenId) external payable{\r\n         address owner = _owners[_tokenId];\r\n         require(_approved != owner, \"ERC721: approval to current owner\");\r\n\r\n        require( msg.sender == owner || isApprovedForAll(owner, msg.sender),\r\n            \"ERC721: approve caller is not owner nor approved for all\"\r\n        );\r\n\r\n        _tokenApprovals[_tokenId] = _approved;\r\n        emit Approval(_owners[_tokenId], _approved, _tokenId);\r\n      }\r\n      \r\n      function setApprovalForAll(address _operator, bool _approved) external{\r\n         require(_operator != msg.sender, \"ERC721: approve to caller\");\r\n         _operatorApprovals[msg.sender][_operator] = _approved;\r\n         emit ApprovalForAll(msg.sender, _operator, _approved);\r\n      }\r\n      \r\n      function getApproved(uint256 _tokenId) public view returns (address){\r\n         require(_owners[_tokenId] != address(0), \"ERC721: approved query for nonexistent token\");\r\n         return _tokenApprovals[_tokenId];\r\n      }\r\n      \r\n      \r\n       function _isApprovedOrOwner(address spender, uint256 tokenId) internal view virtual returns (bool) {\r\n             require(_owners[tokenId] != address(0),\"Invalid Token\");\r\n             address owner = _owners[tokenId];\r\n             return (spender == owner || getApproved(tokenId) == spender || isApprovedForAll(owner, spender));\r\n       }\r\n       \r\n     \r\n}",
  "sourcePath": "C:/Users/soura/OneDrive/Desktop/Programming Files/Solidity Files/my721_token/contracts/MyToken.sol",
  "compiler": {
    "name": "solc",
    "version": "0.8.0+commit.c7dfd78e.Emscripten.clang"
  },
  "schemaVersion": "3.4.1",
  "updatedAt": "2021-05-19T17:15:38.566Z",
  "networkType": "ethereum",
  "devdoc": {
    "kind": "dev",
    "methods": {},
    "version": 1
  },
  "userdoc": {
    "kind": "user",
    "methods": {},
    "version": 1
  }
}